:100000000C947E000C94A6000C94A6000C94A60000
:100010000C94A6000C94AB040C94A6000C94A600BF
:100020000C94A6000C94A6000C94A6000C94A600B8
:100030000C94A6000C94A6000C94A6000C94A600A8
:100040000C9419090C94A6000C94B1020C948B0228
:100050000C94A6000C94A6000C94A6000C94A60088
:100060000C94E3020C94A600AF05B405D105F40589
:10007000F90509062206320653067006084AD73BE0
:100080003BCE016E84BCBFFDC12F3D6C74319ABD67
:1000900056833DDA3D00C77F11BED9E4BB4C3E918B
:1000A0006BAAAABE000000803F00000000002400F0
:1000B00027002A0000000000250028002B0004046F
:1000C0000404040404040202020202020303030300
:1000D00003030102040810204080010204081020DC
:1000E00001020408102000000008000201000003C3
:1000F00004070000000000000000860F11241FBE4E
:10010000CFEFD8E0DEBFCDBF11E0A0E0B1E0E8ED79
:10011000F8E202C005900D92A23EB107D9F724E0A3
:10012000A2EEB1E001C01D92A632B207E1F710E0E5
:10013000CEE7D0E004C02197FE010E944B14CD37DA
:10014000D107C9F70E9463090C946A140C9400004B
:10015000CF92DF92EF92FF920F931F93CF93DF9393
:100160006C017A018B01C0E0D0E0CE15DF0581F093
:10017000D8016D918D01D601ED91FC910190F08136
:10018000E02DC6010995892B11F02196EECF7E0155
:10019000C701DF91CF911F910F91FF90EF90DF90FA
:1001A000CF9008950E946514FC01538D448D252F36
:1001B00030E0842F90E0821B930B541710F0CF9601
:1001C000089501970895FC01918D828D981761F033
:1001D000828DDF01A80FB11D5D968C91928D9F5F7E
:1001E0009F73928F90E008958FEF9FEF0895FC0129
:1001F000918D828D981731F0828DE80FF11D858DDC
:1002000090E008958FEF9FEF0895FC01918D228D6E
:10021000892F90E0805C9F4F821B91098F739927F3
:1002200008958AE992E00E94050121E0892B09F4F2
:1002300020E0822F0895FC01848DDF01A80FB11DFD
:10024000A35ABF4F2C91848D90E001968F7399270C
:10025000848FA689B7892C93A089B1898C918370EA
:1002600080648C93938D848D981306C00288F389E3
:10027000E02D80818F7D80830895EF92FF920F9310
:100280001F93CF93DF93EC0181E0888F9B8D8C8D42
:10029000981305C0E889F989808185FD26C0F62E6E
:1002A0000B8D10E00F5F1F4F0F731127E02E8C8D09
:1002B000E8120CC00FB607FCFACFE889F9898081F3
:1002C00085FFF5CFCE010E941B01F1CF8B8DFE0182
:1002D000E80FF11DE35AFF4FF0829FB7F8940B8FA0
:1002E000EA89FB89808180620AC09FB7F894EE8911
:1002F000FF896083E889F9898081837080648083C5
:100300009FBF81E090E0DF91CF911F910F91FF900F
:10031000EF900895CF93DF93EC01888D8823C9F087
:10032000EA89FB89808185FD05C0A889B9898C91FE
:1003300086FD0FC00FB607FCF5CF808185FFF2CF99
:10034000A889B9898C9185FFEDCFCE010E941B0150
:10035000E7CFDF91CF91089580E090E0892B29F0DD
:100360000E94110181110C940000089585ED809385
:10037000BC008091BC0084FDFCCF1092E801089580
:1003800040915302262F30E0240F311D21323105D8
:10039000DCF42091E8012430C9F4FC0180E090E015
:1003A000861758F4309153022191DC01AD5CBD4FAA
:1003B000A30FB11D2C930196F3CF80915302680FC8
:1003C0006093530280E0089581E0089582E00895EB
:1003D000089508950895E091EC018091EB01E817EC
:1003E00030F4F0E0ED5EFD4F808190E008958FEFF6
:1003F0009FEF08959091EC018091EB01981750F4D4
:10040000E92FF0E0ED5EFD4F208130E09F5F90939B
:10041000EC0102C02FEF3FEFC90108958091EB017D
:1004200090E02091EC01821B91090895CF92DF9218
:10043000EF92FF920F931F93CF93DF937C01CB0139
:100440008A0120911202222389F0EB016B01C40E74
:10045000D51ECC15DD0569F06991D701ED91FC91B0
:100460000190F081E02DC7010995F3CF642F0E9420
:10047000C001C801DF91CF911F910F91FF90EF90C4
:10048000DF90CF900895CF93DF931F92CDB7DEB763
:100490006983209112022223D1F02091E9012032B8
:1004A00040F021E030E0FC013383228380E090E0E3
:1004B00015C08091EA01E82FF0E0EE50FE4F9981DF
:1004C00090838F5F8093EA018093E90105C061E02A
:1004D000CE0101960E94C00181E090E00F90DF9173
:1004E000CF910895089580E090E008956115710519
:1004F00079F0FB0101900020E9F73197AF01461B2D
:10050000570BDC01ED91FC910280F381E02D099401
:1005100080E090E008951F920F920FB60F92112481
:100520002F933F934F935F936F937F938F939F93FB
:10053000AF93BF93EF93FF938AE992E00E941B0170
:10054000FF91EF91BF91AF919F918F917F916F91AB
:100550005F914F913F912F910F900FBE0F901F9081
:1005600018951F920F920FB60F9211242F938F930D
:100570009F93EF93FF93E091AA02F091AB028081E9
:10058000E091B002F091B10282FD12C090818091A1
:10059000B3028F5F8F732091B402821751F0E09104
:1005A000B302F0E0E656FD4F958F8093B30201C091
:1005B0008081FF91EF919F918F912F910F900FBEAE
:1005C0000F901F9018951F920F920FB60F92112443
:1005D0002F933F934F935F936F937F938F939F934B
:1005E000AF93BF93EF93FF938091B900887F8036DC
:1005F00009F49CC068F5883209F45BC090F480313E
:1006000009F454C038F4882309F4F6C0883009F49A
:100610004DC0F6C0883109F44CC0803209F45DC089
:10062000EFC0803409F468C048F4803309F455C041
:10063000883309F0E5C080937602D8C0803509F48C
:100640004FC0883509F45DC0883409F0D9C0D6C0E0
:10065000883909F4C7C0A8F4883709F467C038F4AA
:10066000883609F463C0803709F460C0C9C088388F
:1006700009F4B8C0803909F45FC0803809F0C0C0FF
:100680005BC0803B09F486C038F4803A09F466C048
:10069000883A09F47FC0B4C0803C09F4A7C0883C04
:1006A00009F4A4C0883B09F48AC0AAC080919902C9
:1006B00010C09091980280919702981770F5E09180
:1006C000980281E08E0F80939802F0E0E958FD4F88
:1006D00080818093BB0085EC86C0809376028EC0BB
:1006E000E091980281E08E0F809398028091BB0088
:1006F000F0E0E958FD4F8083909198028091970235
:100700006EC0E091980281E08E0F809398028091F4
:10071000BB00F0E0E958FD4F80838091E701811133
:100720006DC081E08093E60184EA61C083E080933C
:10073000E80110927502CFCF80917502803208F0E7
:1007400051C0E091750281E08E0F80937502809117
:10075000BB00F0E0EB5AFD4F8083BDCF85EC80936A
:10076000BC001092E80180917502803230F4E09173
:100770007502F0E0EB5AFD4F10826091750270E057
:10078000E091E201F091E30185E592E00995109294
:10079000750236C084E08093E801109254021092F2
:1007A0005302E091E401F091E50109958091530233
:1007B000811105C081E08093530210923302E091D1
:1007C000540281E08E0F80935402F0E0ED5CFD4F07
:1007D00080818093BB0090915402809153029817BE
:1007E00008F479CF85E88093BC000AC085EC80933B
:1007F000BC001092E80104C0109276020E94B6017B
:10080000FF91EF91BF91AF919F918F917F916F91E8
:100810005F914F913F912F910F900FBE0F901F90BE
:100820001895CF93FC01C48121E020931202C0935C
:10083000F1011092EA011092E9018385682B87E3A8
:1008400093E00E9443029091E901913208F045C083
:100850008091E8018111FCCF82E08093E80181E082
:100860008093E7018FEF8093760210929802909325
:100870009702A2EFB1E0E7E7F2E080E0981721F0FD
:100880002D9121938F5FFACF109299028091990256
:10089000CC0FC82BC09399028091E601813061F49E
:1008A0001092E601809199028093BB008091BC0078
:1008B00083FDF8CF85EC01C085EE8093BC0080916C
:1008C000E8018230E1F3809176028F3F31F0809130
:1008D0007602803211F0809176021092EA01109235
:1008E000E90110921202CF9108950F931F93CF93B5
:1008F0008C01C62F0E9411046C2F6460C8010E94F5
:1009000011046C2F6B7FC8010E94110483EC90E0EE
:100910000197F1F7CF911F910F9108950F931F93B6
:10092000CF93DF938C01C62FD42F607F642B0E945E
:10093000750480E1C89FB00111246D2BC801DF91BF
:10094000CF911F910F910C94750441E00E948E0489
:1009500081E090E008951F920F920FB60F9211243C
:100960006F927F928F929F92AF92BF92CF92DF92BF
:10097000EF92FF920F931F932F933F934F935F93A9
:100980006F937F938F939F93AF93BF93CF93DF9397
:10099000EF93FF9389B18C70C0911004C8278093A6
:1009A00010040E94BA08E6EFF3E0612C712CA4E079
:1009B000B0E06B017C0120E1C21A27E2D20AE10813
:1009C000F108D1E09D01062C01C0220F0A94EAF73C
:1009D0001C2F122309F440C0309110042323B9F0D6
:1009E0000581168127813085618372838383948397
:1009F00046015701801A910AA20AB30A41E88416F7
:100A00004EE39406A104B10430F5D08325C00181E2
:100A10001281238134814B015C01801A910AA20A60
:100A2000B30A95018401658376838783908740E2CA
:100A3000841A43E0940AA108B10849E7841645E006
:100A40009406A104B10440F44081413029F40187A7
:100A500012872387348710822FEF621A720A3D961D
:100A600042E06416710409F0ADCFFF91EF91DF9180
:100A7000CF91BF91AF919F918F917F916F915F9136
:100A80004F913F912F911F910F91FF90EF90DF9029
:100A9000CF90BF90AF909F908F907F906F900F906E
:100AA0000FBE0F901F901895CF93C82F60E00E9443
:100AB000C00666E081E194E00E94A50466E081E161
:100AC00094E00E94A50462E081E194E00E94A50404
:100AD00061E08C2F0E94C00664E081E194E00E94F6
:100AE000A50464E081E194E00E94A50465E081E151
:100AF00094E0CF910C94A504CF93C82F60E00E949E
:100B0000C00660E081E194E00E94A50461E081E11B
:100B100094E00E94A50462E081E194E00E94A504B3
:100B200061E08C2F0E94C00663E081E194E00E94A6
:100B3000A50464E081E194E00E94A50465E081E100
:100B400094E0CF910C94A504CF938A30910508F0DE
:100B5000EDC0C62FFC01EC5CFF4F0C944B14862FAC
:100B6000972FCF910C947C0560E08C2F0E94C006DB
:100B700061E081E194E00E94A50462E081E194E0FB
:100B80000E94A5048BEA91E00E94EF0661E08C2FA1
:100B90000E94C00664E081E194E00E94A50467E041
:100BA0001DC060E08C2F0E94C00666E081E194E0E9
:100BB0000E94A50466E081E194E00E94A50462E041
:100BC00081E194E00E94A50461E08C2F0E94C006A0
:100BD00063E081E194E00E94A50464E081E194E097
:100BE0000E94A50464E09DC0862F972FCF910C949E
:100BF000540560E08C2F0E94C00663E081E194E020
:100C00000E94A50464E081E194E00E94A50467E0ED
:100C100038C060E08C2F0E94C00663E081E194E060
:100C20000E94A50466E081E194E00E94A50466E0CC
:100C300081E194E00E94A50461E08C2F0E94C0062F
:100C400064E049C060E08C2F0E94C00660E081E152
:100C500094E00E94A50466E081E194E00E94A5046E
:100C600066E030C060E08C2F0E94C00661E081E148
:100C700094E00E94A50461E081E194E00E94A50453
:100C800062E081E194E00E94A50461E08C2F0E9463
:100C9000C0068BEA91E00E94EF068BEA91E00E9489
:100CA000EF0667E03EC060E08C2F0E94C00660E067
:100CB00081E194E00E94A50466E081E194E00E9455
:100CC000A50462E081E194E00E94A50461E08C2F1C
:100CD0000E94C00663E081E194E00E94A5041BC06D
:100CE00060E08C2F0E94C00660E081E194E00E94E9
:100CF000A50466E081E194E00E94A50462E081E140
:100D000094E00E94A50461E08C2F0E94C0068BEA4B
:100D100091E00E94EF0664E081E194E00E94A50466
:100D200065E081E194E0CF910C94A504CF91089502
:100D3000CF93DF9390E0FC01EE52FF4F2491FC0132
:100D4000E254FF4F84918823C1F090E0880F991FEF
:100D5000FC01E655FF4FC591D491FC01EC54FF4FC7
:100D6000A591B4919FB7F8948881322F3095832351
:100D70008883EC91E22BEC939FBFDF91CF91089594
:100D8000CF93DF93CDB7DEB728970FB6F894DEBFC9
:100D90000FBECDBF98E0E4E4F1E0DE0111960190D2
:100DA0000D929A95E1F790911904961710F46FEF50
:100DB000690FFE013196E60FF11DE60FF11D60810E
:100DC000680F606840E081E194E028960FB6F894DF
:100DD000DEBF0FBECDBFDF91CF910C948E04BC015E
:100DE00081E194E00C947602CF93DF93BC018AE911
:100DF00092E00E947602EC0163ED71E08AE992E0F4
:100E00000E9476028C0F9D1FDF91CF9108958F92E3
:100E10009F92AF92BF920F931F93CF93DF93CDB763
:100E2000DEB7A1970FB6F894DEBF0FBECDBF19A2F3
:100E3000423008F44AE08E010F5D1F4F842E912C42
:100E4000A12CB12CA50194010E94C310E62FB90179
:100E5000CA0101501109EA3014F4E05D01C0E95CF7
:100E6000D801EC93232B242B252B61F7B80181E1CA
:100E700094E00E947602A1960FB6F894DEBF0FBEF2
:100E8000CDBFDF91CF911F910F91BF90AF909F90F9
:100E90008F9008958F929F92AF92BF92CF92DF92E0
:100EA000EF92FF920F931F93CF93DF936B017C011F
:100EB000142F9B01AC010E941D14882319F066EDCC
:100EC00071E027C046015701E894B7F82FEF3FEFD4
:100ED0004FE75FE7C501B4010E941D1481110DC0E9
:100EE0002FEF3FEF4FE75FE7C501B4010E94D31139
:100EF00018161CF46AED71E00CC02FEF3FEF4FE7BE
:100F00005FE4C701B6010E945913181694F46EED00
:100F100071E081E194E0DF91CF911F910F91FF90FB
:100F2000EF90DF90CF90BF90AF909F908F900C94F8
:100F300076022FEF3FEF4FE75FECC701B6010E944B
:100F4000D31187FDE4CF20E030E0A901C701B6014D
:100F50000E94D31187FF0DC041E06DE281E194E072
:100F60000E948E04F7FAF094F7F8F094C1E0D0E014
:100F700002C0C0E0D0E000E060E070E080E09FE30D
:100F8000101741F020E030E040E251E40E94D81117
:100F90000F5FF6CFA70196010E94F5106B017C014F
:100FA0000E9451124B015C014AE00E940707C80FE2
:100FB000D91F1123B9F1C501B4010E9480129B0110
:100FC000AC01C701B6010E94F4106B017C0141E045
:100FD0006EE281E194E00E948E04219620E030E0F0
:100FE00040E251E4C701B6010E9466134B015C0167
:100FF0000E9451126B01E12CF12C4AE0C701B601AD
:101000000E940707C80FD91FC701B6010E948012AE
:101010009B01AC01C501B4010E94F4106B017C017D
:101020001150E1F6CE01DF91CF911F910F91FF900A
:10103000EF90DF90CF90BF90AF909F908F900895EA
:101040000F931F93CF93DF938B01877098E0899F55
:10105000B0011124606440E081E194E00E948E04BC
:10106000E801085F1F4F699181E194E00E94A504A7
:10107000C017D107C1F7DF91CF911F910F9108954C
:1010800090E0FC01EA51FF4F2491FC01EE52FF4F2A
:101090003491FC01E254FF4FE491EE23B1F122239D
:1010A00039F1233091F038F42130A9F0223001F5E4
:1010B00084B58F7D12C0273091F02830A1F0243004
:1010C000B9F4809180008F7D03C0809180008F777C
:1010D000809380000DC084B58F7784BD09C0809156
:1010E000B0008F7703C08091B0008F7D8093B000F7
:1010F000F0E0EE0FFF1FEC54FF4FA591B4918FB7B6
:10110000F894EC91E32BEC938FBF0895282F30E0F7
:10111000F901EE0FFF1FED5BFC4F8081220F331FA3
:10112000F901EB5BFC4F9081862796270895CF93BA
:10113000DF9300D000D0CDB7DEB7E82FF0E0EE0FA0
:10114000FF1FED5BFC4FDE0111969E012B5F3F4FB1
:101150008081329686278D93A217B307C9F76981DC
:101160007A818B819C810F900F900F900F90DF916F
:10117000CF9108953FB7F894809122049091230471
:10118000A0912404B091250426B5A89B05C02F3F4B
:1011900019F00196A11DB11D3FBFBA2FA92F982F9D
:1011A0008827820F911DA11DB11DBC01CD0142E018
:1011B000660F771F881F991F4A95D1F708958F9260
:1011C0009F92AF92BF92CF92DF92EF92FF926B010C
:1011D0007C010E94BA084B015C01C114D104E104F6
:1011E000F104F1F00E94BA08DC01CB0188199909D9
:1011F000AA09BB09883E9340A105B10570F321E01F
:10120000C21AD108E108F10888EE880E83E0981E22
:10121000A11CB11CC114D104E104F10419F7DDCF04
:10122000FF90EF90DF90CF90BF90AF909F908F9006
:1012300008951F920F920FB60F9211242F933F9390
:101240008F939F93AF93BF9380911E0490911F043F
:10125000A0912004B091210430911D0423E0230FBC
:101260002D3720F40196A11DB11D05C026E8230FDE
:101270000296A11DB11D20931D0480931E0490931E
:101280001F04A0932004B093210480912204909124
:101290002304A0912404B09125040196A11DB11D41
:1012A0008093220490932304A0932404B0932504F4
:1012B000BF91AF919F918F913F912F910F900FBE52
:1012C0000F901F901895789484B5826084BD84B582
:1012D000816084BD85B5826085BD85B5816085BD31
:1012E00080916E00816080936E00109281008091E9
:1012F0008100826080938100809181008160809371
:101300008100809180008160809380008091B10095
:1013100084608093B1008091B00081608093B000C0
:1013200080917A00846080937A0080917A00826054
:1013300080937A0080917A00816080937A00809116
:101340007A00806880937A001092C100E091AA022E
:10135000F091AB0282E08083E091A602F091A702B7
:101360001082E091A802F091A90280E1808310929E
:10137000B202E091AE02F091AF0286E08083E0918C
:10138000AC02F091AD02808180618083E091AC027B
:10139000F091AD02808188608083E091AC02F09191
:1013A000AD02808180688083E091AC02F091AD0253
:1013B00080818F7D80838CE791E00E94F4060FB6D8
:1013C000F894A895809160008861809360001092E5
:1013D00060000FBE64E670E080E090E00E94DF08ED
:1013E0009FE088E10FB6F894A895809360000FBE47
:1013F000909360001092EC011092EB011092EA01C0
:101400001092E9011092E80181E08093E7011092C7
:10141000E60182E10E94400883E10E944008809139
:10142000B9008E7F8093B9008091B9008D7F809341
:10143000B90088E48093B80085E48093BC0088EE0E
:1014400091E09093E5018093E40189EE91E090931F
:10145000E3018093E2011092160480911B04823014
:1014600018F098E0909316048093190462E370E0FA
:1014700080E090E00E94DF0860911C0481E194E02C
:101480000E94110468EE73E080E090E00E94DF08A3
:1014900060E381E194E00E947504CBE4D6E4CE01E0
:1014A0000197F1F760E381E194E00E9475042197D0
:1014B000F1F760E381E194E00E94750483E592E036
:1014C0000197F1F760E281E194E00E947504609178
:1014D0001604606240E081E194E00E948E0484E0A2
:1014E0008093170440E06CE081E194E00E948E0458
:1014F00040E061E081E194E00E948E04CBE3DFE113
:10150000CE010197F1F782E08093180440E066E095
:1015100081E194E00E948E0440E062E081E194E089
:101520000E948E04CE010197F1F740E061E081E175
:1015300094E00E948E042197F1F788E080931C04C8
:1015400060E081E194E00E94110468E371E080E0D2
:101550000E94200860E371E081E00E94200868E2B8
:1015600071E082E00E94200860E271E083E00E9466
:10157000200868E171E084E00E94200860E171E0E9
:1015800085E00E94200868E071E086E00E94200863
:1015900060E071E087E00E942008C0E0D0E060E0F9
:1015A00070E0CE010E94A40564E070E0CE010E94CC
:1015B000A40561E087E00E94C00683E991E00E94F3
:1015C000EF068CE090E00E947C0560E083E10E94E1
:1015D000C00688E991E00E94EF0663E083E10E9483
:1015E000C0068AE991E00E94EF0660E080E10E9477
:1015F000C00663E081E194E00E94A50467E081E118
:1016000094E00E94A50467E081E194E00E94A504B3
:1016100061E081E10E94C00663E081E194E00E9404
:10162000A50467E081E194E00E94A50462E082E104
:101630000E94C00667E081E194E00E94A50463E097
:1016400082E10E94C00663E081E194E00E94A5046B
:1016500063E08AE00E94C00663E081E194E00E94BA
:10166000A5048CE991E00E94EF0664E081E194E03A
:101670000E94A5048FE991E00E94EF0665E081E1F8
:1016800094E00E94A50462E081E00E94C00682EA24
:1016900091E00E94EF066091D1037091D203809196
:1016A000D3039091D40340E00E944A0788EA91E076
:1016B0000E94EF0663E081E00E94C0068DEA91E09F
:1016C0000E94EF066091DB0370E080E090E04AE06A
:1016D0000E9407078AEA91E00E94EF0664E670E044
:1016E00080E090E00E94DF08A8952196CA30D105DD
:1016F00009F055CF83EB91E00E94F406CAE0D0E0F8
:1017000083EC91E00E94F40684E090E00E9454058E
:1017100064EF71E080E090E00E94DF088AE992E0E7
:101720000E940501892B09F4EDC38AE992E00E9429
:10173000E3002091B7033091B8032115310539F446
:101740008535910509F096C081E090E00DC021300B
:10175000310579F48A3A910509F08CC01092BF03E3
:101760001092C00382E090E09093B8038093B70397
:1017700085C02230310589F49093BC038093BB036C
:101780009091BF03890F8093BF039091C003890F8D
:101790008093C00383E090E0E7CF2330310549F523
:1017A0002091BB033091BC032031310529F48A33E9
:1017B000910509F05FC008C02032310509F05AC018
:1017C0008630910509F056C09093BE038093BD0307
:1017D0001092BA031092B9039091BF03890F8093BE
:1017E000BF039091C003890F8093C00384E090E011
:1017F000BBCF2430310531F52091B9033091BA03C4
:10180000A9014F5F5F4F5093BA034093B903220F72
:10181000331FF901ED5BFC4F918380839091BF03EF
:10182000890F8093BF039091C003890F8093C003F9
:101830008091BD039091BE0348175907FCF085E0E5
:1018400090E092CF2530310549F42091BF0330E07C
:101850008217930779F486E090E086CF2630310531
:1018600049F42091C00330E08217930719F487E010
:1018700090E07ACF1092B8031092B7038091B7032B
:101880009091B803079709F057C21092B8031092CD
:10189000B7032090BB033090BC0390E129163104BC
:1018A00009F084C11091B103612F80E00E94970874
:1018B0009B01AB01BC012F732093F503DB01CA012F
:1018C00026E0B695A795979587952A95D1F78F73BA
:1018D0008093F403DB01CA013CE0B695A795979588
:1018E00087953A95D1F78F708093F303962F9F7168
:1018F000E5E17695679557954795EA95D1F7883054
:1019000008F09F5F9093F203842F8F708093F10310
:10191000A4E07695679557954795AA95D1F740939A
:10192000F003612F84E00E9497080E94821220E851
:1019300036E948E15BE40E94D8116093C9037093D3
:10194000CA038093CB039093CC03612F88E00E945D
:1019500097080E94821220E836E948E15BE40E9481
:10196000D8116093CD037093CE038093CF039093EF
:10197000D003612F8CE00E9497080E94821220E021
:1019800030E04AE754E40E94D8116093D103709389
:10199000D2038093D3039093D403612F8CE10E94F0
:1019A00097080E94821220E030E048EC52E40E9446
:1019B000D8114B015C01612F80E20E9497080E94C0
:1019C000821220E030E048EC52E40E94D8116B0112
:1019D0007C01A5019401C501B4010E9466132B018D
:1019E0003C01A7019601C701B6010E9466139B0145
:1019F000AC01C301B2010E94F5100E94D91360939B
:101A0000D5037093D6038093D7039093D803A50191
:101A10009401C701B6010E94741120E030E044E354
:101A200053E40E9466132BED3FE049E450E40E942A
:101A3000D8116B017C0120E030E0A9010E94D31194
:101A400087FD09C0C092E003D092E103E092E20377
:101A5000F092E30310C020E030E044EB53E4C70110
:101A6000B6010E94F5106093E0037093E103809348
:101A7000E2039093E303612F84E20E9497080E949F
:101A80008212905820E030E048EC52E40E94D811D5
:101A90006093E4037093E5038093E6039093E70378
:101AA000612F8AE20E948608BC01990F880B990B6E
:101AB0000E94821220E030E048EC52E40E94D811EB
:101AC0006093EC037093ED038093EE039093EF0328
:101AD000612F8CE20E948608BC01990F880B990B3C
:101AE0000E94821220E030E048EC52E40E94D811BB
:101AF0004B015C01612F8EE20E948608BC01990FA8
:101B0000880B990B0E94821220E030E048EC52E4EE
:101B10000E94D8116B017C01A5019401C501B4019B
:101B20000E9466134B015C01A7019601C701B60133
:101B30000E9466139B01AC01C501B4010E94F5101F
:101B40000E94D9136093E8037093E9038093EA033A
:101B50009093EB038091A3038093DB032091AB036D
:101B60008091A7038127823029F0833051F483E0EC
:101B700090E002C082E090E09093DA038093D90372
:101B800004C01092DA031092D9038091D903909186
:101B9000DA03892B09F4CEC0122711FFCBC084E0F1
:101BA00090E09093DA038093D903C4C090E22916A1
:101BB000310409F0BFC020914B0330914C03C9019F
:101BC0009927AC0164E0559547956A95E1F742275E
:101BD000142F1F70AC0173E0440F551F7A95E1F785
:101BE000407F412B21703327E3E0220F331FEA951A
:101BF000E1F79695982F882797958795822B142F34
:101C00001827612F80E00E9486086C01612F82E016
:101C10000E9486087C018091C3039091C4038C15B7
:101C20009D0524F4D092C403C092C3038091C103E4
:101C30009091C203C816D90624F4D092C203C09270
:101C4000C1038091C7039091C8038E159F0524F4AA
:101C5000F092C803E092C7038091C5039091C60338
:101C6000E816F90624F4F092C603E092C503209129
:101C7000C3033091C4038091C1039091C203820FCA
:101C8000931F97FD019695958795B601681B790B73
:101C9000072E000C880B990B0E9482124B015C01ED
:101CA0002091C7033091C8038091C5039091C6036A
:101CB000820F931F97FD019695958795B701681B35
:101CC000790B072E000C880B990B0E948212A5013C
:101CD00094010E947411905820E030E044E353E4F2
:101CE0000E9466132BED3FE049E450E40E94D811B6
:101CF0006B017C0120E030E0A9010E94D31187FD37
:101D000009C0C092DC03D092DD03E092DE03F092C2
:101D1000DF0310C020E030E044EB53E4C701B6011C
:101D20000E94F5106093DC037093DD038093DE0363
:101D30009093DF03122D01C010E00E943A1024E0BE
:101D400030E040E050E00E9491107093F001609309
:101D5000EF01103109F0D5C026E636E646E650E43C
:101D60006091D5037091D6038091D7039091D803E9
:101D70000E94661320E030E040E251E40E946613C6
:101D80002AE939E949E85FE30E9466130E944A1292
:101D90007093EE016093ED01CB0164E670E00E9468
:101DA0003714CB01BE010E94371460E070E00E943E
:101DB000A4058091ED019091EE01BE010E943714BF
:101DC000CB01BE010E94371464E070E00E94A405BC
:101DD00061E087E00E94C00683E991E00E94EF067F
:101DE00062E081E00E94C00682EA91E00E94EF0674
:101DF0006091D1037091D2038091D3039091D40369
:101E000040E00E944A0788EA91E00E94EF0663E002
:101E100081E00E94C0068DEA91E00E94EF06609189
:101E2000DB0370E080E090E04AE00E94070789EA67
:101E300091E00E94EF066CE070E08091EF019091DC
:101E4000F0010E94A40560E083E10E94C00688E9D9
:101E500091E00E94EF0663E083E10E94C0068AE9F8
:101E600091E00E94EF0660E080E10E94C00663E01E
:101E700081E194E00E94A50467E081E194E00E9482
:101E8000A50467E081E194E00E94A50461E081E19E
:101E90000E94C00663E081E194E00E94A50467E02F
:101EA00081E194E00E94A50462E082E10E94C00604
:101EB00067E081E194E00E94A50463E082E10E9472
:101EC000C00663E081E194E00E94A50463E08AE03B
:101ED0000E94C00663E081E194E00E94A5048CE9C1
:101EE00091E00E94EF0664E081E194E00E94A50485
:101EF0008FE991E00E94EF0665E081E194E00E94A5
:101F0000A504A895A8950E94AC01FACBEAE9F2E0F5
:101F10001382128288EE93E0A0E0B0E08483958380
:101F2000A683B78320E531E03183208325EC30E0C0
:101F30003587248724EC30E03787268720EC30E093
:101F4000318B208B21EC30E0338B228B22EC30E084
:101F5000358B248B26EC30E0378B268B118E128E3E
:101F6000138E148EE7E3F3E0138212828483958349
:101F7000A683B78382E691E0918380831092B803B1
:101F80001092B7031092BA031092B9031092BC03D7
:101F90001092BB031092BE031092BD031092BF03B8
:101FA0001092C00382E00E94980683E00E94980687
:101FB000F89484E0809368009CE090936D0078949E
:101FC000E1E1F4E01382128224E731E031832083DF
:101FD00097E2948394E191878287138608958F9284
:101FE0009F92AF92BF92CF92DF92EF92FF92CF93E8
:101FF000DF93EC01688179818A819B81611571058C
:102000008105910521F464E279ED8BE597E02DE1FE
:1020100033EF41E050E00E94911049015A019B01C9
:10202000AC01A7EAB1E40E94B0106B017C01ACEEF8
:10203000B4EFA50194010E94BE10DC01CB018C0D10
:102040009D1DAE1DBF1DB7FF03C00197A109B0487C
:1020500088839983AA83BB83BC01CD019F77DF91DD
:10206000CF91FF90EF90DF90CF90BF90AF909F9077
:102070008F9008958F929F92AF92BF92CF92DF92EE
:10208000EF92FF9260914001709141018091420175
:1020900090914301611571058105910521F464E278
:1020A00079ED8BE597E02DE133EF41E050E00E94C0
:1020B000911049015A019B01AC01A7EAB1E40E94C9
:1020C000B0106B017C01ACEEB4EFA50194010E944D
:1020D000BE10DC01CB018C0D9D1DAE1DBF1DB7FFD9
:1020E00003C00197A109B04880934001909341013A
:1020F000A0934201B0934301BC01CD019F77FF90B3
:10210000EF90DF90CF90BF90AF909F908F90089509
:102110006093400170934101809342019093430189
:102120000895052E97FB1EF400940E94A81057FDF9
:1021300007D00E94C31007FC03D04EF40C94A810E3
:1021400050954095309521953F4F4F4F5F4F0895E3
:1021500090958095709561957F4F8F4F9F4F089513
:102160000E94E510A59F900DB49F900DA49F800D37
:10217000911D11240895B7FF0C94B0100E94B01067
:10218000821B930B0895A1E21A2EAA1BBB1BFD0113
:102190000DC0AA1FBB1FEE1FFF1FA217B307E40746
:1021A000F50720F0A21BB30BE40BF50B661F771F9E
:1021B000881F991F1A9469F760957095809590957E
:1021C0009B01AC01BD01CF010895A29FB001B39F57
:1021D000C001A39F700D811D1124911DB29F700D30
:1021E000811D1124911D08955058BB27AA270E94D4
:1021F0000C110C941F130E94111338F00E94181335
:1022000020F039F49F3F19F426F40C94E7120EF4F1
:10221000E095E7FB0C94E112E92F0E94301358F38C
:10222000BA17620773078407950720F079F4A6F5BB
:102230000C9452130EF4E0950B2EBA2FA02D0B0127
:10224000B90190010C01CA01A0011124FF27591BFB
:1022500099F0593F50F4503E68F11A16F040A22F01
:10226000232F342F4427585FF3CF46953795279572
:10227000A795F0405395C9F77EF41F16BA0B620B71
:10228000730B840BBAF09150A1F0FF0FBB1F661FB8
:10229000771F881FC2F70EC0BA0F621F731F841FFB
:1022A00048F4879577956795B795F7959E3F08F021
:1022B000B0CF9395880F08F09927EE0F97958795E3
:1022C00008950E94111360F080E891E009F49EEFF8
:1022D0000E94181328F040E851E071F45EEF0CC042
:1022E0000C94E7120C945213E92FE0780E943013FB
:1022F00040F3092E052AB1F3261737074807590777
:1023000038F00E2E07F8E02569F0E025E0640AC0F9
:10231000EF6307F8009407FADB01B9019D01DC01C6
:10232000CA01AD01EF930E94EF110E941F130E949A
:10233000A4115F91552339F02BED3FE049E450FDA6
:1023400049EC0C94F5100895DF93DD27B92FBF7782
:1023500040E85FE31616170648075B0718F4D92F05
:102360000E945E139F938F937F936F930E94191423
:10237000ECE7F0E00E94EA120E941F132F913F91B8
:102380004F915F910E947913DD2351F09058A2EA9A
:102390002AED3FE049EC5FE3D0785D270E940C1105
:1023A000DF910C941F130E94BD1208F481E0089580
:1023B0000E94EC110C941F130E94181358F00E94F5
:1023C000111340F029F45F3F29F00C94E1125111F0
:1023D0000C9453130C94E7120E94301368F3992362
:1023E000B1F3552391F3951B550BBB27AA27621711
:1023F0007307840738F09F5F5F4F220F331F441F1E
:10240000AA1FA9F335D00E2E3AF0E0E832D0915051
:102410005040E695001CCAF72BD0FE2F29D0660F3E
:10242000771F881FBB1F261737074807AB07B0E881
:1024300009F0BB0B802DBF01FF2793585F4F3AF087
:102440009E3F510578F00C94E1120C9453135F3FBA
:10245000E4F3983ED4F3869577956795B795F7950D
:102460009F5FC9F7880F911D9695879597F90895F5
:10247000E1E0660F771F881FBB1F62177307840791
:10248000BA0720F0621B730B840BBA0BEE1F88F7A0
:10249000E09508950E9451126894B1110C94531361
:1024A00008950E94381388F09F5798F0B92F992704
:1024B000B751B0F0E1F0660F771F881F991F1AF02F
:1024C000BA95C9F714C0B13091F00E945213B1E02F
:1024D00008950C945213672F782F8827B85F39F02E
:1024E000B93FCCF3869577956795B395D9F73EF4C8
:1024F00090958095709561957F4F8F4F9F4F089570
:10250000E89409C097FB3EF490958095709561958D
:102510007F4F8F4F9F4F9923A9F0F92F96E9BB2743
:102520009395F695879577956795B795F111F8CFBF
:10253000FAF4BB0F11F460FF1BC06F5F7F4F8F4F2A
:102540009F4F16C0882311F096E911C0772321F020
:102550009EE8872F762F05C0662371F096E8862FB8
:1025600070E060E02AF09A95660F771F881FDAF70F
:10257000880F9695879597F90895990F0008550F3C
:10258000AA0BE0E8FEEF16161706E807F907C0F0F9
:1025900012161306E407F50798F0621B730B840B01
:1025A000950B39F40A2661F0232B242B252B21F4DB
:1025B00008950A2609F4A140A6958FEF811D811D7B
:1025C000089597F99F6780E870E060E008959FEFB5
:1025D00080EC0895DF93CF931F930F93FF92EF92B8
:1025E000DF927B018C01689406C0DA2EEF010E9415
:1025F0007913FE01E894A591259135914591559166
:10260000A6F3EF010E940C11FE019701A801DA94D4
:1026100069F7DF90EF90FF900F911F91CF91DF91BD
:10262000089500240A941616170618060906089538
:1026300000240A9412161306140605060895092E9E
:102640000394000C11F4882352F0BB0F40F4BF2B0D
:1026500011F460FF04C06F5F7F4F8F4F9F4F08954D
:1026600057FD9058440F551F59F05F3F71F0479543
:10267000880F97FB991F61F09F3F79F08795089528
:10268000121613061406551FF2CF4695F1DF08C047
:10269000161617061806991FF1CF86957105610564
:1026A00008940895E894BB2766277727CB0197F90C
:1026B00008950E94BD1208F48FEF08959B01AC01AC
:1026C00060E070E080E89FE30C94D8110E947913D9
:1026D0000C941F130E94111338F00E94181320F05D
:1026E000952311F00C94E1120C94E71211240C9430
:1026F00053130E94301370F3959FC1F3950F50E070
:10270000551F629FF001729FBB27F00DB11D639FA3
:10271000AA27F00DB11DAA1F649F6627B00DA11D49
:10272000661F829F2227B00DA11D621F739FB00DEF
:10273000A11D621F839FA00D611D221F749F33275F
:10274000A00D611D231F849F600D211D822F762FF8
:102750006A2F11249F5750409AF0F1F088234AF0D5
:10276000EE0FFF1FBB1F661F771F881F9150504041
:10277000A9F79E3F510580F00C94E1120C9453137D
:102780005F3FE4F3983ED4F3869577956795B795C8
:10279000F795E7959F5FC1F7FE2B880F911D9695E2
:1027A000879597F9089519F416F40C94E7120C9490
:1027B00022140E943813B8F39923C9F3B6F39F5734
:1027C000550B87FF0E9430140024A0E640EA9001D8
:1027D00080585695979528F4805C660F771F881F60
:1027E00020F026173707480730F4621B730B840B61
:1027F000202931294A2BA6951794079420253125A5
:102800004A2758F7660F771F881F20F026173707CB
:10281000480730F4620B730B840B200D311D411DF2
:10282000A09581F7B901842F9158880F96958795C7
:1028300008959B01AC010C9466130E94BD12880B95
:10284000990B08959F3F31F0915020F4879577952B
:102850006795B795880F911D9695879597F9089577
:1028600091505040660F771F881FD2F7089597FB4D
:10287000072E16F4009407D077FD09D00E9451145A
:1028800007FC05D03EF4909581959F4F0895709573
:1028900061957F4F0895EE0FFF1F0590F491E02D95
:1028A0000994AA1BBB1B51E107C0AA1FBB1FA61797
:1028B000B70710F0A61BB70B881F991F5A95A9F7E9
:1028C00080959095BC01CD01089581E090E0F89449
:0828D0000C946A14F894FFCF88
:1028D8001F1F1F1F1F1F1F1F1F1F1F0000001F1F5D
:1028E8001F1F1F1F1F1F1E1C00000000001F1F1F8F
:1028F8001F1F1F1F1F1F0F071C1E1F1F1F1F1F1F0C
:102908001F1F1F0000000000070F1F1F1F1F1F1F92
:102918000100000000004000140054000000000006
:102928003D01A800D4008A010501E300F70000007A
:102938000000430216027302EA010E02FA01EB01DB
:1029480000000000A504A8007302720257617463B6
:1029580068646F672044656D6F2053746172746991
:102968006E67006B6D2F68004600450044550042B5
:102978004100416C743A20006D202020005361749E
:102988003A20005761746368646F672044656D6F0F
:102998002031005761746368646F672044656D6F08
:1029A8002032000D0A006E616E00696E66006F7657
:0229B8006600B7
:107E0000112484B714BE81FFF0D085E080938100F7
:107E100082E08093C00088E18093C10086E0809377
:107E2000C20080E18093C4008EE0C9D0259A86E02C
:107E300020E33CEF91E0309385002093840096BBD3
:107E4000B09BFECF1D9AA8958150A9F7CC24DD24C4
:107E500088248394B5E0AB2EA1E19A2EF3E0BF2EE7
:107E6000A2D0813461F49FD0082FAFD0023811F036
:107E7000013811F484E001C083E08DD089C08234E0
:107E800011F484E103C0853419F485E0A6D080C0E4
:107E9000853579F488D0E82EFF2485D0082F10E0AE
:107EA000102F00270E291F29000F111F8ED06801E7
:107EB0006FC0863521F484E090D080E0DECF843638
:107EC00009F040C070D06FD0082F6DD080E0C81688
:107ED00080E7D80618F4F601B7BEE895C0E0D1E017
:107EE00062D089930C17E1F7F0E0CF16F0E7DF06D8
:107EF00018F0F601B7BEE89568D007B600FCFDCFD4
:107F0000A601A0E0B1E02C9130E011968C91119780
:107F100090E0982F8827822B932B1296FA010C0160
:107F200087BEE89511244E5F5F4FF1E0A038BF0790
:107F300051F7F601A7BEE89507B600FCFDCF97BE46
:107F4000E89526C08437B1F42ED02DD0F82E2BD052
:107F50003CD0F601EF2C8F010F5F1F4F84911BD097
:107F6000EA94F801C1F70894C11CD11CFA94CF0C13
:107F7000D11C0EC0853739F428D08EE10CD085E9AC
:107F80000AD08FE07ACF813511F488E018D01DD067
:107F900080E101D065CF982F8091C00085FFFCCF94
:107FA0009093C60008958091C00087FFFCCF809118
:107FB000C00084FD01C0A8958091C6000895E0E648
:107FC000F0E098E1908380830895EDDF803219F02E
:107FD00088E0F5DFFFCF84E1DECF1F93182FE3DFCA
:107FE0001150E9F7F2DF1F91089580E0E8DFEE27F6
:047FF000FF270994CA
:027FFE00040479
:0400000300007E007B
:00000001FF
